:030000000201AD4D
:0C01AD00787FE4F6D8FD75817B0201F438
:10053700122B3F065B4F666D7D077F6F777C395EB9
:1005470079714000086F00010203040506070E5F7A
:100557003D3E796D6D00733879776D7900000956E6
:100567006D3E3939796D6D00000625717730380099
:010577000083
:040609007F057E00EB
:10060D00D3EF9400EE940040120000007D0B7CBEF1
:0B061D00DCFEDDFCEF1F70E81E80E536
:0106280022AF
:0506C1001206C6D2CDB7
:0106C6002211
:0405A000AB07AA06F5
:1005A400900000EB25E0FFEA33FEC3E5829FE5837C
:0F05B4009E500CB2B47F017E0012060DA380E4AE
:0105C3002215
:0D06AA00759A10438E1475D7E075D6FE22A8
:10068A00538E7F5389F0438901758CFC758A172232
:100046007594FFE4F593759608F59575B210F5B1BC
:10005600F592F591C2A3D2A0D2A1D2A2F580F52243
:10006600F552F554753D01F53FF53EF553F555F559
:1000760042C200C201C207F544F550F56E7577011C
:10008600757902757A03757B0475210575230675E6
:100096002407F54AF551F547754801754902754B30
:1000A60003754C04754D05754E06754F07F540F5FD
:1000B60041C203C204C202C2B4C206759D80F5BD28
:1000C60075BC8FF597D288D2A8C2B812068AC28D9F
:1000D600D28CD2A9758DFF758B03D2ABC28ED2AFEF
:1000E600C2B743BA011206AAD20543AF0143B5010E
:0C00F600D2AFD2CD1206C6D2C00206C6A0
:0A003900D2C01206C1C2C00206C602
:0A06B700C2C01206C1D2C00206C67E
:0B05C4001206291205CFAF0512062910
:1005CF00E4FFD2CD1206C630C009EFC394FF50032B
:0805DF000F80F4C2CD0206C634
:10062900E4FEEF25E0FFC2CD1206C692C01206C154
:0E0639000EBE08EEC2CD1206C6D2C00206C624
:10000E00C2CD1206C6D2C01206C6E4FED2CD12066C
:10001E00C6EF25E0FDA2C0E4334DFF1206C6C2CDE9
:0A002E001206C60EBE08E51206C653
:0100380022A5
:10066300AC071200397FA01206291205CFAF04127E
:0506730005C40206B7FA
:02064700AD07FD
:100649001200397FA01205C41200397FA1120629B0
:090659001205CF12000E1206B7C3
:010662002275
:1006780075BCEF00000000E5BC30E4FB53BCEFAFF5
:01068800BDB4
:01068900224E
:1005E700120678EFF46018120609120678EFF46025
:1005F7000E5307E07805EF08800103D8FDFF227F3F
:0106070007EB
:0106080022CF
:100102001205E7EF640770030201A6AB07EF64076D
:1001120060051205E780F6EB606D14605214602DE5
:1001220014607514605214707BE522700CE552B4B1
:100132000905E4F55280020552E52264017065E585
:1001420054B40905E4F554805B05548057E52270E8
:100152000BE552700575520980021552E5226401C1
:100162007042E5547005755409803915548035E59F
:1001720022B401028007800AE522B40105E4F522D7
:100182008022752201801DE552C454F02554F53EAB
:10019200FDAF3F120663D202D200053DE53DB40336
:0B01A20003E4F53D7F647E0002060DC3
:10047E000542E542B40803E4F542E4F580746F25C5
:10048E0042F8E6F5A0E542B4070050359004A1F815
:10049E002828730204B60204BC0204CB0204CB0269
:1004AE0004C20204CB0204CB742B2552801A742B87
:1004BE0025548014300215742B2541800BE4F580F1
:0D04CE0022300208742B253DF8E6F580224F
:1004DB000542E542B40803E4F542E4F580746F2568
:1004EB0042F8E6F5A0E542B4070050349004FEF85C
:1004FB0028287302051302051702051B02051F02AC
:10050B00052302052702052775806D227580392288
:10051B0075803F2275807B2275807922E4F58022DD
:0C052B00C374079541242BF8E6F58022EC
:1002BD000544E544B40805E4F5440550E550B4643F
:1002CD0013E4F550056E05770579057A057B052153
:1002DD0005230524E4F580746F2544F8E6F5A0E5C3
:1002ED0044B4070050389002FAF828287302030F1F
:1002FD0002031302031702031B02031F020323024F
:10030D000327E56E801AE5778016E5798012E57A88
:10031D00800EE57B800AE5218006E5238002E52439
:0D032D0075F00E84745F25F0F8E6F580226F
:10023900054AE54AB40805E4F54A0551E551B464AF
:1002490013E4F551054705480549054B054C054D8E
:10025900054E054FE4F580746F254AF8E6F5A0E5EB
:100269004AB407005038900276F828287302028BA6
:1002790002028F02029302029702029B02029F026C
:1002890002A3E547801AE5488016E5498012E54B47
:10029900800EE54C800AE54D8006E54E8002E54F6B
:1002A90075F00984745625F0F8E6F580E547B4073A
:0402B90002D2072244
:10033A00054AE54AB40805E4F54A0551E551B464AD
:10034A0013E4F551054705480549054B054C054D8C
:10035A00054E054FE4F580746F254AF8E6F5A0E5E9
:10036A004AB407005038900377F828287302038CA0
:10037A0002039002039402039802039C0203A00260
:10038A0003A4E547801AE5488016E5498012E54B43
:10039A00800EE54C800AE54D8006E54E8002E54F69
:0D03AA0075F00684742525F0F8E6F5802234
:03000B000203B736
:1003B700C0E0C0F0C083C082C0D075D000C0007557
:1003C7008A18758CFC0546E54670020545C3940AF4
:1003D700E545940040067545007546002000031268
:1003E70002BD30000620010312047E30011BD3E555
:1003F700419407E5409400400512033A800B20071B
:100407000512023980031204DBD000D0D0D082D08D
:0604170083D0F0D0E032BA
:030043000205793A
:10057900C0E0E59A30E013859B43E543C4540FF589
:1005890052E543540FF554539AFEE59A30E105C2FA
:0705990005539AFDD0E0328A
:0300030002069A58
:10069A00D2B7853D9B2005FDD205853D6DC2B73297
:10041D00120046E4F580E56D6402600BD3E541946E
:10042D0007E54094004004D20180EB120102AF3F7A
:10043D001206478F7820B21B12060920B21530B272
:10044D00FD7F647E001205A00541E5417002054067
:10045D0012060920B3C012060920B3BA30B3FDE568
:10046D0078C4540FF552E578540FF55412060980EF
:01047D00A5D9
:1001B90002041DE493A3F8E493A34003F68001F23B
:1001C90008DFF48029E493A3F85407240CC8C33347
:1001D900C4540F4420C8834004F456800146F6DF16
:1001E900E4800B0102040810204080900537E47E6A
:1001F900019360BCA3FF543F30E509541FFEE4930B
:10020900A360010ECF54C025E060A840B8E493A3D1
:10021900FAE493A3F8E493A3C8C582C8CAC583CAFC
:10022900F0A3C8C582C8CAC583CADFE9DEE780BEB4
:010578000082
:00000001FF
