:030000000200F209
:0C00F200787FE4F6D8FD758177020139B3
:100533003108250821080021082508310800F88C16
:10054300F95BFA15FA67FB04FB90FC0CFC44FCAC6A
:10055300FD09FD34FD82FDC8FE06FE22FE56FE6E39
:08056300FE9AFEC1FEE4FF0355
:1004F100122B3F065B4F666D7D077F6F777C395E00
:1005010079714000086C00010203040506070E5DC5
:100511003D3E796D6D00733879776D79000009542E
:100521006D3E3939796D6D000006257177303800DF
:0105310000C9
:040640007F057E00B4
:10064400D3EF9400EE940040120000007D0B7CBEBA
:0B065400DCFEDDFCEF1F70E81E80E5FF
:01065F002278
:0A05D3000BD28E75F0B4A4FFAEF059
:1005DD00D3EF9400EE940040147D7C7C00ED1D70F3
:0D05ED00011CED4C70F7EF1F70E61E80E35F
:0105FA0022DE
:1005FB00EFC4540FFEEF540FFFBE0104E4FE800C5A
:10060B00BE02047E0E8005BE03027E1CEF1425E0A5
:02061B002EFFB0
:01061D0022BA
:10056B00E4FBFAEB90053393FFF5081205FBA907A3
:10057B00E990054193F550E9A393F5510B85508D07
:10058B0085518BEB90053393F5091205D3C28E0A77
:03059B00BA03D0D0
:01059E00223A
:10059F00E4FBFAEB90053A93FFF5081205FBA90768
:1005AF00E990054193F550E9A393F5510B85508DD3
:1005BF0085518BEB90053A93F5091205D3C28E0A3C
:0305CF00BA03D09C
:0105D2002206
:04001E00AB07AA067C
:10002200900000EB25E0FFEA33FEC3E5829FE58303
:0F0032009E500CB2B47F017E00120644A380E4FE
:01004100229C
:0D000E00759A10438E1475D7E075D6FE224A
:0D06AB00538E7F5389F0758CFC758A1722E1
:100046007594FFE4F593759608F59575B210F5B1BC
:10005600F592F591C2A3D2A0D2A1D2A2F580F52243
:10006600F552F553F53DF541F540C200C201C20512
:10007600F542F54EF56B7574017575027576037567
:100086007704752105752306752407F548F54FF5A0
:1000960045754601754702754903754A04754B0552
:1000A600754C06754D07F53EF53FC2B4C204C20253
:1000B600759D80F5BD75BC8FF597D288C28AD2A88A
:1000C600C2B81206ABC28DD28CD2A9758DD8758BEB
:1000D600EFD2ABC28EC2BBD2AFC2B743BA011200D7
:0C00E6000ED20343AF0143B501D2AF229C
:1006990075BCEF00000000E5BC30E4FB53BCEFAFD4
:0106A900BD93
:0106AA00222D
:10061E00120699EFF46018120640120699EFF46074
:10062E000E5307E07805EF08800103D8FDFF227F07
:01063E0007B4
:01063F002298
:10017E0012061EEF6407607CAB07EF640760051282
:10018E00061E80F6EB14605214602D146064146029
:10019E0052147060E522700CE552B40905E4F55274
:1001AE0080020552E5226401704AE553B40905E464
:1001BE00F55380400553803CE522700BE5527005E7
:1001CE0075520980021552E52264017027E55370BD
:1001DE0005755309801E1553801AE522B40102805D
:1001EE0007800AE522B40105E4F522800775220195
:0B01FE008002D2007F647E00020644F5
:1003ED000540E540B40803E4F540E4F580746C2560
:1003FD0040F8E6F5A0E540B407005034900410F83D
:10040D0028287302042502042902042D0204310256
:10041D00043502043902043975806D227580392244
:10042D0075803F2275807B2275807922E4F58022CC
:0C043D00C37407953F242BF8E6F58022DD
:1004A0000540E540B40803E4F540E4F580746C25AC
:1004B00040F8E6F5A0E540B40700502C9004C3F8DE
:1004C0002828730204D80204DE0204E40204E402D1
:1004D00004E40204E40204E4742B2552800E742B1D
:1004E00025538008E4F58022742B2541F8E6F58039
:0104F00022E9
:10028D000542E542B40805E4F542054EE54EB46479
:10029D0013E4F54E056B0574057505760577052197
:1002AD0005230524E4F580746C2542F8E6F5A0E5F8
:1002BD0042B4070050389002CAF82828730202DFB2
:1002CD000202E30202E70202EB0202EF0202F30274
:1002DD0002F7E56B801AE5748016E5758012E576F8
:1002ED00800EE577800AE5218006E5238002E5246E
:0D02FD0075F00E84745D25F0F8E6F58022A2
:100209000548E548B40805E4F548054FE54FB464E9
:1002190013E4F54F0545054605470549054A054BCC
:10022900054C054DE4F580746C2548F8E6F5A0E524
:1002390048B407005038900246F828287302025B38
:1002490002025F02026302026702026B02026F028C
:100259000273E545801AE5468016E5478012E549AF
:10026900800EE54A800AE54B8006E54C8002E54DA3
:1002790075F00984745425F0F8E6F580E545B4076E
:0402890002D2052276
:10030A000548E548B40805E4F548054FE54FB464E7
:10031A0013E4F54F0545054605470549054A054BCA
:10032A00054C054DE4F580746C2548F8E6F5A0E522
:10033A0048B407005038900347F828287302035C32
:10034A0002036002036402036802036C0203700280
:10035A000374E545801AE5468016E5478012E549AB
:10036A00800EE54A800AE54B8006E54C8002E54DA1
:0D037A0075F00684742525F0F8E6F5802264
:03000B0002038766
:10038700C0E0C0F0C083C082C0D075D000C0007587
:100397008A18758CFC0544E54470020543C3940A2A
:1003A700E54394004006754300754400200003129E
:1003B700028D3000062001031204A030011BD3E593
:1003C7003F9407E53E9400400512030A800B200581
:1003D7000512020980031203EDD000D0D0D082D0DD
:0603E70083D0F0D0E032EB
:03001B000206B822
:0906B80085508C85518AB2B432E0
:0300430002067D35
:10067D00C0E0E59A30E008859B41D202539AFEE531
:0C068D009A30E105C203539AFDD0E03220
:0300030002066092
:10066000C0E0C0D0D2B7E552C454F02553F53DF5F3
:0D0670009B2003FDD203C2B7D0D0D0E032F2
:10044900120046E4F580E541700830020512056B9B
:10045900C202E541B4010830020512059FC202E556
:10046900416402600BD3E53F9407E53E94004004E4
:10047900D20180D212017E20B2CC12064020B2C62F
:1004890030B2FD7F647E0012001E053FE53F700219
:07049900053E12064080AF92
:1000FE00020449E493A3F8E493A34003F68001F2CB
:10010E0008DFF48029E493A3F85407240CC8C33302
:10011E00C4540F4420C8834004F456800146F6DFD1
:10012E00E4800B01020408102040809004F1E47E6C
:10013E00019360BCA3FF543F30E509541FFEE493C6
:10014E00A360010ECF54C025E060A840B8E493A38D
:10015E00FAE493A3F8E493A3C8C582C8CAC583CAB8
:10016E00F0A3C8C582C8CAC583CADFE9DEE780BE70
:0105320000C8
:00000001FF
